:100000000C9446000C9465000C9465000C946500FB
:100010000C9465000C9465000C9465000C946500CC
:100020000C9465000C9465000C9465000C946500BC
:100030000C9465000C9465000C9465000C946500AC
:100040000C9465000C9465000C9465000C9465009C
:100050000C9465000C9465000C9465000C9465008C
:100060000C9465000C9465000C9465000C9465007C
:100070000C9465000C9465000C9465000C9465006C
:100080000C9465000C9465000C94650011241FBE4F
:10009000CFEFD0E4DEBFCDBF11E0A0E0B1E0E6EBF2
:1000A000F2E000E00BBF02C007900D92AE30B10746
:1000B000D9F721E0AEE0B1E001C01D92A031B20756
:1000C000E1F70E943B010C9459010C940000CF937E
:1000D000DF9300D01F92CDB7DEB789837B836A831D
:1000E00089818A3031F48A819B81BC018DE00E9434
:1000F000670080EC90E0FC018081882F90E08072A6
:100100009927892BB1F386EC90E02981FC012083AB
:1001100080E090E00F900F900F90DF91CF910895C5
:10012000CF93DF931F92CDB7DEB780E290E0FC0162
:1001300080818095898380910E0190910F0182309A
:10014000910599F18330910528F4009771F001979A
:10015000D9F06DC08430910509F449C0843091050F
:10016000A8F1059709F454C062C08981882339F445
:1001700081E090E090930F0180930E0158C010929F
:100180000F0110920E0153C08981813039F482E051
:1001900090E090930F0180930E0149C081E090E0C0
:1001A00090930F0180930E0142C08981882339F416
:1001B00083E090E090930F0180930E0138C082E0BD
:1001C00090E090930F0180930E0131C089818130BE
:1001D00039F484E090E090930F0180930E0127C0E2
:1001E00083E090E090930F0180930E0120C08981FD
:1001F000882339F485E090E090930F0180930E01FD
:1002000016C084E090E090930F0180930E010FC020
:100210008981813029F410920F0110920E0106C0DD
:1002200085E090E090930F0180930E010000809193
:100230000E0190910F018230910561F0843091059B
:1002400079F0892B09F012C085E290E02AE2FC01E6
:1002500020830CC085E290E025E1FC01208306C0EC
:1002600085E290E02FE3FC012083000000000F9066
:10027000DF91CF910895CF93DF93CDB7DEB781E2C1
:1002800090E0FC01108282E290E02FEFFC012083DD
:1002900084E290E02FEFFC01208310920F01109276
:1002A0000E0185E290E02AE2FC0120830E9490008A
:0602B000FDCFF894FFCF22
:0E02B6000000000200000000670000000000D1
:00000001FF
