:100000000C9446000C945D000C945D000C945D0013
:100010000C945D000C945D000C945D000C945D00EC
:100020000C945D000C945D000C945D000C945D00DC
:100030000C945D000C945D000C945D000C945D00CC
:100040000C945D000C945D000C945D000C945D00BC
:100050000C945D000C945D000C945D000C945D00AC
:100060000C945D000C945D000C945D000C945D009C
:100070000C945D000C945D000C945D000C945D008C
:100080000C945D000C945D000C945D0011241FBE67
:10009000CFEFD0E4DEBFCDBF11E0A0E0B1E0E6ECF1
:1000A000F2E000E00BBF02C007900D92AE30B10746
:1000B000D9F70E9488000C9461010C940000CF9342
:1000C000DF9300D01F92CDB7DEB789837B836A832D
:1000D00089818A3031F48A819B81BC018DE00E9444
:1000E0005F0080EC90E0FC018081882F90E08072BE
:1000F0009927892BB1F386EC90E02981FC012083BC
:1001000080E090E00F900F900F90DF91CF910895D5
:10011000CF93DF931F92CDB7DEB781E290E0FC0171
:10012000108282E290E02FEFFC01208387E290E0D2
:100130002FEFFC01208388E290E0FC01108288E22E
:1001400090E0FC01108280E290E0FC0180818F70E1
:10015000898391E08981813009F090E081E02981F3
:10016000223009F080E0892B882351F088E290E06A
:1001700028E230E0F90120812062FC01208393C055
:1001800091E08981833009F090E081E02981243079
:1001900009F080E0892B882351F088E290E028E282
:1001A00030E0F90120812063FC0120837CC091E0D4
:1001B0008981853009F090E081E02981263009F0BD
:1001C00080E0892B882351F088E290E028E230E03B
:1001D000F90120812863FC01208365C091E08981B9
:1001E000873009F090E081E02981283009F080E033
:1001F000892B282F30E081E09981993009F080E047
:10020000882F90E0822B932B892B51F088E290E08D
:1002100028E230E0F90120812C63FC01208343C0F7
:1002200091E089818A3009F090E081E029812B30CA
:1002300009F080E0892B282F30E081E099819C3003
:1002400009F080E0882F90E0822B932B892B51F0CE
:1002500088E290E028E230E0F90120812E63FC0181
:10026000208321C091E089818D3009F090E081E008
:1002700029812E3009F080E0892B282F30E081E0A1
:1002800099819F3009F080E0882F90E0822B932B9A
:10029000892B49F088E290E028E230E0F9012081E2
:1002A0002F63FC0120838981853008F048CF88E2E4
:1002B00090E028E230E0F90120812064FC012083F5
:0602C0003ECFF894FFCFD1
:0E02C60000000002000000005F0000000000C9
:00000001FF
