:100000000C9446000C9465000C9465000C946500FB
:100010000C9465000C9465000C9465000C946500CC
:100020000C9465000C9465000C9465000C946500BC
:100030000C9465000C9465000C9465000C946500AC
:100040000C9465000C9465000C9465000C9465009C
:100050000C9465000C9465000C9465000C9465008C
:100060000C9465000C9465000C9465000C9465007C
:100070000C9465000C9465000C9465000C9465006C
:100080000C9465000C9465000C94650011241FBE4F
:10009000CFEFD0E4DEBFCDBF11E0A0E0B1E0E4E5FA
:1000A000F4E000E00BBF02C007900D92AE30B10744
:1000B000D9F721E0AEE0B1E001C01D92A031B20756
:1000C000E1F70E9408020C9428020C940000CF93E0
:1000D000DF9300D01F92CDB7DEB789837B836A831D
:1000E00089818A3031F48A819B81BC018DE00E9434
:1000F000670080EC90E0FC018081882F90E08072A6
:100100009927892BB1F386EC90E02981FC012083AB
:1001100080E090E00F900F900F90DF91CF910895C5
:10012000CF93DF93CDB7DEB780910E0190910F0191
:100130008230910509F4A2C08330910530F4009714
:10014000D9F1019709F46CC02EC18430910541F0BA
:100150008430910508F4C4C0059709F4ECC023C1AC
:1001600080E290E0FC018081882F90E0029629F4E3
:1001700010920F0110920E010FC180E290E0FC017D
:100180008081882F90E0039639F482E090E090938C
:100190000F0180930E0100C180E290E0FC0180819C
:1001A000882F90E0049609F0F7C085E090E09093E6
:1001B0000F0180930E01F0C080E290E0FC0180818D
:1001C000882F90E0049639F485E090E090930F0139
:1001D00080930E01E8C080E290E0FC018081882FCE
:1001E00090E0039639F482E090E090930F018093C1
:1001F0000E01D9C080E290E0FC018081882F90E060
:10020000019639F484E090E090930F0180930E0101
:10021000CAC081E090E090930F0180930E01C3C0AB
:1002200080E290E0FC018081882F90E0019639F413
:1002300084E090E090930F0180930E01AFC080E2C4
:1002400090E0FC018081882F90E0039639F482E0F1
:1002500090E090930F0180930E01A0C080E290E0A7
:10026000FC018081882F90E0049609F097C085E01A
:1002700090E090930F0180930E0190C080E290E097
:10028000FC018081882F90E0049639F485E090E0AD
:1002900090930F0180930E0186C080E290E0FC01F4
:1002A0008081882F90E0029629F410920F0110921D
:1002B0000E0179C080E290E0FC018081882F90E0FF
:1002C000019639F484E090E090930F0180930E0141
:1002D0006AC083E090E090930F0180930E0163C0A9
:1002E00080E290E0FC018081882F90E0019639F453
:1002F00084E090E090930F0180930E0151C080E262
:1003000090E0FC018081882F90E0029629F4109201
:100310000F0110920E0144C080E290E0FC01808148
:10032000882F90E00496E1F585E090E090930F012E
:1003300080930E0135C084E090E090930F0180938C
:100340000E0180E290E0FC018081882F90E002960F
:1003500029F410920F0110920E0124C080E290E067
:10036000FC018081882F90E0039639F482E090E0D0
:1003700090930F0180930E0115C080E290E0FC0184
:100380008081882F90E0049669F485E090E0909356
:100390000F0180930E0106C0000005C0000003C0DD
:1003A000000001C0000080910E0190910F01823089
:1003B0009105A1F085309105F9F0892B09F024C051
:1003C00088E290E0FC0180818930D8F488E290E0F6
:1003D000FC0120812F5FFC01208313C088E290E0A4
:1003E000FC018081882379F088E290E0FC01208183
:1003F0002150FC01208307C088E290E0FC011082BC
:1004000003C0000001C000000000DF91CF910895FB
:10041000CF93DF93CDB7DEB781E290E0FC0110828D
:1004200082E290E02FEFFC01208387E290E02FEF43
:10043000FC01208388E290E027E0FC01208384E037
:1004400090E090930F0180930E010E949000FDCFE9
:04045000F894FFCF4E
:0E045400000000020000000067000000000031
:00000001FF
