:100000000C9446000C9465000C9465000C946500FB
:100010000C9465000C9465000C9465000C946500CC
:100020000C9465000C9465000C9465000C946500BC
:100030000C9465000C9465000C9465000C946500AC
:100040000C9465000C9465000C9465000C9465009C
:100050000C9465000C9465000C9465000C9465008C
:100060000C9465000C9465000C9465000C9465007C
:100070000C9465000C9465000C9465000C9465006C
:100080000C9465000C9465000C94650011241FBE4F
:10009000CFEFD0E4DEBFCDBF11E0A0E0B1E0E0EBF8
:1000A000F3E000E00BBF02C007900D92AE30B10745
:1000B000D9F721E0AEE0B1E001C01D92A031B20756
:1000C000E1F70E94B6010C94D6010C940000CF9386
:1000D000DF9300D01F92CDB7DEB789837B836A831D
:1000E00089818A3031F48A819B81BC018DE00E9434
:1000F000670080EC90E0FC018081882F90E08072A6
:100100009927892BB1F386EC90E02981FC012083AB
:1001100080E090E00F900F900F90DF91CF910895C5
:10012000CF93DF931F92CDB7DEB780E290E0FC0162
:1001300080818095898380910E0190910F0182309A
:10014000910509F475C08330910530F4009761F191
:10015000019709F44EC0D4C08430910541F0843039
:10016000910508F488C0059709F4A1C0C9C0898128
:10017000813029F410920F0110920E01BAC08981CA
:10018000823039F482E090E090930F0180930E0169
:10019000B0C08981833009F0ACC085E090E09093D5
:1001A0000F0180930E01A5C08981833039F485E069
:1001B00090E090930F0180930E01A2C0898182305C
:1001C00039F482E090E090930F0180930E0198C083
:1001D0008981882339F484E090E090930F01809323
:1001E0000E018EC081E090E090930F0180930E018C
:1001F00087C08981882339F484E090E090930F01CF
:1002000080930E0178C08981823039F482E090E0D9
:1002100090930F0180930E016EC08981833009F0A5
:100220006AC085E090E090930F0180930E0163C057
:100230008981833039F485E090E090930F018093B9
:100240000E015EC08981813029F410920F01109255
:100250000E0156C08981882339F484E090E09093A0
:100260000F0180930E014CC083E090E090930F014A
:1002700080930E0145C08981882339F484E090E0A1
:1002800090930F0180930E0138C08981813029F449
:1002900010920F0110920E0130C08981833069F5F0
:1002A00085E090E090930F0180930E0126C084E0DA
:1002B00090E090930F0180930E018981813029F4A1
:1002C00010920F0110920E011AC08981823039F408
:1002D00082E090E090930F0180930E0110C089811D
:1002E000833069F485E090E090930F0180930E01D4
:1002F00006C0000005C0000003C0000001C00000EF
:1003000080910E0190910F0182309105A1F085300E
:100310009105F9F0892B09F024C088E290E0FC01F6
:1003200080818930D8F488E290E0FC0120812F5F41
:10033000FC01208313C088E290E0FC0180818823C7
:1003400079F088E290E0FC0120812150FC012083BB
:1003500007C088E290E0FC01108203C0000001C0E9
:10036000000000000F90DF91CF910895CF93DF93AD
:10037000CDB7DEB781E290E0FC01108282E290E02E
:100380002FEFFC01208387E290E02FEFFC01208318
:1003900088E290E027E0FC01208384E090E09093E5
:1003A0000F0180930E010E949000FDCFF894FFCFC3
:0E03B0000000000200000000670000000000D6
:00000001FF
