:100000000C9446000C9465000C9465000C946500FB
:100010000C9465000C9465000C9465000C946500CC
:100020000C9465000C9465000C9465000C946500BC
:100030000C9465000C9465000C9465000C946500AC
:100040000C9465000C9465000C9465000C9465009C
:100050000C9465000C9465000C9465000C9465008C
:100060000C9465000C9465000C9465000C9465007C
:100070000C9465000C9465000C9465000C9465006C
:100080000C9465000C9465000C94650011241FBE4F
:10009000CFEFD0E4DEBFCDBF11E0A0E0B1E0E4E0FF
:1000A000F5E000E00BBF02C007900D92AE30B10743
:1000B000D9F721E0AEE0B1E001C01D92A031B20756
:1000C000E1F70E9465020C9480020C940000CF932B
:1000D000DF9300D01F92CDB7DEB789837B836A831D
:1000E00089818A3031F48A819B81BC018DE00E9434
:1000F000670080EC90E0FC018081882F90E08072A6
:100100009927892BB1F386EC90E02981FC012083AB
:1001100080E090E00F900F900F90DF91CF910895C5
:10012000CF93DF93CDB7DEB780910E0190910F0191
:100130008230910509F4D1C08330910538F40097DD
:1001400009F44CC0019709F48BC08AC18430910531
:1001500041F08430910508F400C1059709F438C1D5
:100160007FC180E290E0FC018081882F90E0817067
:100170009927892B29F410920F0110920E0169C161
:1001800080E290E0FC018081882F90E082709927C6
:10019000892B39F482E090E090930F0180930E0157
:1001A00058C180E290E0FC018081882F90E082704D
:1001B0009927892B09F04DC180E290E0FC018081F4
:1001C000882F90E081709927892B09F042C185E042
:1001D00090E090930F0180930E013BC180E290E08C
:1001E000FC018081882F90E082709927892B89F407
:1001F00080E290E0FC018081882F90E08170992757
:10020000892B39F485E090E090930F0180930E01E3
:1002100027C180E290E0FC018081882F90E082700D
:100220009927892B39F082E090E090930F01809319
:100230000E0116C180E290E0FC018081882F90E0E1
:10024000019639F484E090E090930F0180930E01C1
:1002500007C181E090E090930F0180930E0100C1EF
:1002600080E290E0FC018081882F90E0019639F4D3
:1002700084E090E090930F0180930E01ECC080E247
:1002800090E0FC018081882F90E082709927892B73
:1002900039F482E090E090930F0180930E01DBC06F
:1002A00080E290E0FC018081882F90E082709927A5
:1002B000892B09F0D0C080E290E0FC018081882F7A
:1002C00090E081709927892B09F0C5C085E090E006
:1002D00090930F0180930E01BEC080E290E0FC017C
:1002E0008081882F90E082709927892B89F480E2A1
:1002F00090E0FC018081882F90E081709927892B04
:1003000039F485E090E090930F0180930E01A8C02E
:1003100080E290E0FC018081882F90E08170992735
:10032000892B29F410920F0110920E0199C080E2DE
:1003300090E0FC018081882F90E0019639F484E000
:1003400090E090930F0180930E018AC083E090E0CB
:1003500090930F0180930E0183C080E290E0FC0136
:100360008081882F90E0019639F484E090E09093AA
:100370000F0180930E0171C080E290E0FC0180814A
:10038000882F90E081709927892B29F410920F0112
:1003900010920E0162C080E290E0FC018081882F03
:1003A00090E082709927892B09F057C080E290E095
:1003B000FC018081882F90E081709927892B09F0BA
:1003C0004CC085E090E090930F0180930E0145C0F2
:1003D00084E090E090930F0180930E0180E290E022
:1003E000FC018081882F90E081709927892B29F466
:1003F00010920F0110920E0132C080E290E0FC01D9
:100400008081882F90E082709927892B39F482E0CF
:1004100090E090930F0180930E0121C080E290E064
:10042000FC018081882F90E082709927892BB9F494
:1004300080E290E0FC018081882F90E08170992714
:10044000892B69F485E090E090930F0180930E0171
:1004500006C0000005C0000003C0000001C000008D
:1004600080910E0190910F0182309105A1F08530AD
:100470009105F9F0892B09F024C088E290E0FC0195
:1004800080818930D8F488E290E0FC0120812F5FE0
:10049000FC01208313C088E290E0FC018081882366
:1004A00079F088E290E0FC0120812150FC0120835A
:1004B00007C088E290E0FC01108203C0000001C088
:1004C00000000000DF91CF910895CF93DF93CDB767
:1004D000DEB781E290E0FC01108287E290E02FEF2E
:1004E000FC01208388E290E027E0FC01208384E087
:1004F00090E090930F0180930E010E949000FDCF39
:04050000F894FFCF9D
:0E050400000000020000000067000000000080
:00000001FF
